{
  "_format": "hh-sol-artifact-1",
  "contractName": "ERC20_smart_contract2",
  "sourceName": "contracts/AITU_SE-2316-17_MDA_Token2.sol",
  "abi": [
    {
      "inputs": [
        {
          "internalType": "uint256",
          "name": "initialSupply",
          "type": "uint256"
        },
        {
          "internalType": "address",
          "name": "_owner",
          "type": "address"
        }
      ],
      "stateMutability": "nonpayable",
      "type": "constructor"
    },
    {
      "inputs": [
        {
          "internalType": "address",
          "name": "spender",
          "type": "address"
        },
        {
          "internalType": "uint256",
          "name": "allowance",
          "type": "uint256"
        },
        {
          "internalType": "uint256",
          "name": "needed",
          "type": "uint256"
        }
      ],
      "name": "ERC20InsufficientAllowance",
      "type": "error"
    },
    {
      "inputs": [
        {
          "internalType": "address",
          "name": "sender",
          "type": "address"
        },
        {
          "internalType": "uint256",
          "name": "balance",
          "type": "uint256"
        },
        {
          "internalType": "uint256",
          "name": "needed",
          "type": "uint256"
        }
      ],
      "name": "ERC20InsufficientBalance",
      "type": "error"
    },
    {
      "inputs": [
        {
          "internalType": "address",
          "name": "approver",
          "type": "address"
        }
      ],
      "name": "ERC20InvalidApprover",
      "type": "error"
    },
    {
      "inputs": [
        {
          "internalType": "address",
          "name": "receiver",
          "type": "address"
        }
      ],
      "name": "ERC20InvalidReceiver",
      "type": "error"
    },
    {
      "inputs": [
        {
          "internalType": "address",
          "name": "sender",
          "type": "address"
        }
      ],
      "name": "ERC20InvalidSender",
      "type": "error"
    },
    {
      "inputs": [
        {
          "internalType": "address",
          "name": "spender",
          "type": "address"
        }
      ],
      "name": "ERC20InvalidSpender",
      "type": "error"
    },
    {
      "anonymous": false,
      "inputs": [
        {
          "indexed": true,
          "internalType": "address",
          "name": "owner",
          "type": "address"
        },
        {
          "indexed": true,
          "internalType": "address",
          "name": "spender",
          "type": "address"
        },
        {
          "indexed": false,
          "internalType": "uint256",
          "name": "value",
          "type": "uint256"
        }
      ],
      "name": "Approval",
      "type": "event"
    },
    {
      "anonymous": false,
      "inputs": [
        {
          "indexed": true,
          "internalType": "address",
          "name": "sender",
          "type": "address"
        },
        {
          "indexed": true,
          "internalType": "address",
          "name": "receiver",
          "type": "address"
        },
        {
          "indexed": false,
          "internalType": "uint256",
          "name": "timestamp",
          "type": "uint256"
        }
      ],
      "name": "TransactionTracked",
      "type": "event"
    },
    {
      "anonymous": false,
      "inputs": [
        {
          "indexed": true,
          "internalType": "address",
          "name": "from",
          "type": "address"
        },
        {
          "indexed": true,
          "internalType": "address",
          "name": "to",
          "type": "address"
        },
        {
          "indexed": false,
          "internalType": "uint256",
          "name": "value",
          "type": "uint256"
        }
      ],
      "name": "Transfer",
      "type": "event"
    },
    {
      "inputs": [
        {
          "internalType": "address",
          "name": "owner",
          "type": "address"
        },
        {
          "internalType": "address",
          "name": "spender",
          "type": "address"
        }
      ],
      "name": "allowance",
      "outputs": [
        {
          "internalType": "uint256",
          "name": "",
          "type": "uint256"
        }
      ],
      "stateMutability": "view",
      "type": "function"
    },
    {
      "inputs": [
        {
          "internalType": "address",
          "name": "spender",
          "type": "address"
        },
        {
          "internalType": "uint256",
          "name": "value",
          "type": "uint256"
        }
      ],
      "name": "approve",
      "outputs": [
        {
          "internalType": "bool",
          "name": "",
          "type": "bool"
        }
      ],
      "stateMutability": "nonpayable",
      "type": "function"
    },
    {
      "inputs": [
        {
          "internalType": "address",
          "name": "account",
          "type": "address"
        }
      ],
      "name": "balanceOf",
      "outputs": [
        {
          "internalType": "uint256",
          "name": "",
          "type": "uint256"
        }
      ],
      "stateMutability": "view",
      "type": "function"
    },
    {
      "inputs": [],
      "name": "decimals",
      "outputs": [
        {
          "internalType": "uint8",
          "name": "",
          "type": "uint8"
        }
      ],
      "stateMutability": "view",
      "type": "function"
    },
    {
      "inputs": [],
      "name": "getLastReceiverAddress",
      "outputs": [
        {
          "internalType": "address",
          "name": "",
          "type": "address"
        }
      ],
      "stateMutability": "view",
      "type": "function"
    },
    {
      "inputs": [],
      "name": "getLastSenderAddress",
      "outputs": [
        {
          "internalType": "address",
          "name": "",
          "type": "address"
        }
      ],
      "stateMutability": "view",
      "type": "function"
    },
    {
      "inputs": [],
      "name": "getLastTransactionTimestamp",
      "outputs": [
        {
          "internalType": "uint256",
          "name": "",
          "type": "uint256"
        }
      ],
      "stateMutability": "view",
      "type": "function"
    },
    {
      "inputs": [],
      "name": "lastReceiver",
      "outputs": [
        {
          "internalType": "address",
          "name": "",
          "type": "address"
        }
      ],
      "stateMutability": "view",
      "type": "function"
    },
    {
      "inputs": [],
      "name": "lastSender",
      "outputs": [
        {
          "internalType": "address",
          "name": "",
          "type": "address"
        }
      ],
      "stateMutability": "view",
      "type": "function"
    },
    {
      "inputs": [],
      "name": "lastTimestamp",
      "outputs": [
        {
          "internalType": "uint256",
          "name": "",
          "type": "uint256"
        }
      ],
      "stateMutability": "view",
      "type": "function"
    },
    {
      "inputs": [],
      "name": "name",
      "outputs": [
        {
          "internalType": "string",
          "name": "",
          "type": "string"
        }
      ],
      "stateMutability": "view",
      "type": "function"
    },
    {
      "inputs": [],
      "name": "ownerAddress",
      "outputs": [
        {
          "internalType": "address",
          "name": "",
          "type": "address"
        }
      ],
      "stateMutability": "view",
      "type": "function"
    },
    {
      "inputs": [],
      "name": "symbol",
      "outputs": [
        {
          "internalType": "string",
          "name": "",
          "type": "string"
        }
      ],
      "stateMutability": "view",
      "type": "function"
    },
    {
      "inputs": [],
      "name": "totalSupply",
      "outputs": [
        {
          "internalType": "uint256",
          "name": "",
          "type": "uint256"
        }
      ],
      "stateMutability": "view",
      "type": "function"
    },
    {
      "inputs": [
        {
          "internalType": "address",
          "name": "recipient",
          "type": "address"
        },
        {
          "internalType": "uint256",
          "name": "amount",
          "type": "uint256"
        }
      ],
      "name": "transfer",
      "outputs": [
        {
          "internalType": "bool",
          "name": "",
          "type": "bool"
        }
      ],
      "stateMutability": "nonpayable",
      "type": "function"
    },
    {
      "inputs": [
        {
          "internalType": "address",
          "name": "from",
          "type": "address"
        },
        {
          "internalType": "address",
          "name": "to",
          "type": "address"
        },
        {
          "internalType": "uint256",
          "name": "value",
          "type": "uint256"
        }
      ],
      "name": "transferFrom",
      "outputs": [
        {
          "internalType": "bool",
          "name": "",
          "type": "bool"
        }
      ],
      "stateMutability": "nonpayable",
      "type": "function"
    }
  ],
  "bytecode": "0x60806040523480156200001157600080fd5b5060405162001dd738038062001dd783398181016040528101906200003791906200052b565b6040518060400160405280601981526020017f414954555f53452d323331362d31375f4d44415f546f6b656e000000000000008152506040518060400160405280600381526020017f4d444100000000000000000000000000000000000000000000000000000000008152508160039081620000b49190620007e2565b508060049081620000c69190620007e2565b505050600073ffffffffffffffffffffffffffffffffffffffff168173ffffffffffffffffffffffffffffffffffffffff16036200013b576040517f08c379a000000000000000000000000000000000000000000000000000000000815260040162000132906200092a565b60405180910390fd5b80600860006101000a81548173ffffffffffffffffffffffffffffffffffffffff021916908373ffffffffffffffffffffffffffffffffffffffff160217905550620001b88162000191620001c060201b60201c565b600a6200019f919062000adc565b84620001ac919062000b2d565b620001c960201b60201c565b505062000c4c565b60006012905090565b600073ffffffffffffffffffffffffffffffffffffffff168273ffffffffffffffffffffffffffffffffffffffff16036200023e5760006040517fec442f0500000000000000000000000000000000000000000000000000000000815260040162000235919062000b89565b60405180910390fd5b62000252600083836200025660201b60201c565b5050565b600073ffffffffffffffffffffffffffffffffffffffff168373ffffffffffffffffffffffffffffffffffffffff1603620002ac5780600260008282546200029f919062000ba6565b9250508190555062000382565b60008060008573ffffffffffffffffffffffffffffffffffffffff1673ffffffffffffffffffffffffffffffffffffffff168152602001908152602001600020549050818110156200033b578381836040517fe450d38c000000000000000000000000000000000000000000000000000000008152600401620003329392919062000bf2565b60405180910390fd5b8181036000808673ffffffffffffffffffffffffffffffffffffffff1673ffffffffffffffffffffffffffffffffffffffff16815260200190815260200160002081905550505b600073ffffffffffffffffffffffffffffffffffffffff168273ffffffffffffffffffffffffffffffffffffffff1603620003cd57806002600082825403925050819055506200041a565b806000808473ffffffffffffffffffffffffffffffffffffffff1673ffffffffffffffffffffffffffffffffffffffff168152602001908152602001600020600082825401925050819055505b8173ffffffffffffffffffffffffffffffffffffffff168373ffffffffffffffffffffffffffffffffffffffff167fddf252ad1be2c89b69c2b068fc378daa952ba7f163c4a11628f55a4df523b3ef8360405162000479919062000c2f565b60405180910390a3505050565b600080fd5b6000819050919050565b620004a0816200048b565b8114620004ac57600080fd5b50565b600081519050620004c08162000495565b92915050565b600073ffffffffffffffffffffffffffffffffffffffff82169050919050565b6000620004f382620004c6565b9050919050565b6200050581620004e6565b81146200051157600080fd5b50565b6000815190506200052581620004fa565b92915050565b6000806040838503121562000545576200054462000486565b5b60006200055585828601620004af565b9250506020620005688582860162000514565b9150509250929050565b600081519050919050565b7f4e487b7100000000000000000000000000000000000000000000000000000000600052604160045260246000fd5b7f4e487b7100000000000000000000000000000000000000000000000000000000600052602260045260246000fd5b60006002820490506001821680620005f457607f821691505b6020821081036200060a5762000609620005ac565b5b50919050565b60008190508160005260206000209050919050565b60006020601f8301049050919050565b600082821b905092915050565b600060088302620006747fffffffffffffffffffffffffffffffffffffffffffffffffffffffffffffffff8262000635565b62000680868362000635565b95508019841693508086168417925050509392505050565b6000819050919050565b6000620006c3620006bd620006b7846200048b565b62000698565b6200048b565b9050919050565b6000819050919050565b620006df83620006a2565b620006f7620006ee82620006ca565b84845462000642565b825550505050565b600090565b6200070e620006ff565b6200071b818484620006d4565b505050565b5b8181101562000743576200073760008262000704565b60018101905062000721565b5050565b601f82111562000792576200075c8162000610565b620007678462000625565b8101602085101562000777578190505b6200078f620007868562000625565b83018262000720565b50505b505050565b600082821c905092915050565b6000620007b76000198460080262000797565b1980831691505092915050565b6000620007d28383620007a4565b9150826002028217905092915050565b620007ed8262000572565b67ffffffffffffffff8111156200080957620008086200057d565b5b620008158254620005db565b6200082282828562000747565b600060209050601f8311600181146200085a576000841562000845578287015190505b620008518582620007c4565b865550620008c1565b601f1984166200086a8662000610565b60005b8281101562000894578489015182556001820191506020850194506020810190506200086d565b86831015620008b45784890151620008b0601f891682620007a4565b8355505b6001600288020188555050505b505050505050565b600082825260208201905092915050565b7f4f776e657220616464726573732063616e6e6f74206265207a65726f00000000600082015250565b600062000912601c83620008c9565b91506200091f82620008da565b602082019050919050565b60006020820190508181036000830152620009458162000903565b9050919050565b7f4e487b7100000000000000000000000000000000000000000000000000000000600052601160045260246000fd5b60008160011c9050919050565b6000808291508390505b6001851115620009da57808604811115620009b257620009b16200094c565b5b6001851615620009c25780820291505b8081029050620009d2856200097b565b945062000992565b94509492505050565b600082620009f5576001905062000ac8565b8162000a05576000905062000ac8565b816001811462000a1e576002811462000a295762000a5f565b600191505062000ac8565b60ff84111562000a3e5762000a3d6200094c565b5b8360020a91508482111562000a585762000a576200094c565b5b5062000ac8565b5060208310610133831016604e8410600b841016171562000a995782820a90508381111562000a935762000a926200094c565b5b62000ac8565b62000aa8848484600162000988565b9250905081840481111562000ac25762000ac16200094c565b5b81810290505b9392505050565b600060ff82169050919050565b600062000ae9826200048b565b915062000af68362000acf565b925062000b257fffffffffffffffffffffffffffffffffffffffffffffffffffffffffffffffff8484620009e3565b905092915050565b600062000b3a826200048b565b915062000b47836200048b565b925082820262000b57816200048b565b9150828204841483151762000b715762000b706200094c565b5b5092915050565b62000b8381620004e6565b82525050565b600060208201905062000ba0600083018462000b78565b92915050565b600062000bb3826200048b565b915062000bc0836200048b565b925082820190508082111562000bdb5762000bda6200094c565b5b92915050565b62000bec816200048b565b82525050565b600060608201905062000c09600083018662000b78565b62000c18602083018562000be1565b62000c27604083018462000be1565b949350505050565b600060208201905062000c46600083018462000be1565b92915050565b61117b8062000c5c6000396000f3fe608060405234801561001057600080fd5b50600436106101005760003560e01c806370a0823111610097578063a9059cbb11610066578063a9059cbb146102a3578063dd62ed3e146102d3578063f8ea8ed014610303578063f99638901461032157610100565b806370a08231146102195780638f84aa091461024957806395d89b41146102675780639b68767a1461028557610100565b806323b872dd116100d357806323b872dd1461018f578063256fec88146101bf578063313ce567146101dd57806341a37224146101fb57610100565b806306fdde0314610105578063095ea7b31461012357806318160ddd1461015357806319d8ac6114610171575b600080fd5b61010d61033f565b60405161011a9190610dcf565b60405180910390f35b61013d60048036038101906101389190610e8a565b6103d1565b60405161014a9190610ee5565b60405180910390f35b61015b6103f4565b6040516101689190610f0f565b60405180910390f35b6101796103fe565b6040516101869190610f0f565b60405180910390f35b6101a960048036038101906101a49190610f2a565b610404565b6040516101b69190610ee5565b60405180910390f35b6101c7610433565b6040516101d49190610f8c565b60405180910390f35b6101e5610459565b6040516101f29190610fc3565b60405180910390f35b610203610462565b6040516102109190610f0f565b60405180910390f35b610233600480360381019061022e9190610fde565b61046c565b6040516102409190610f0f565b60405180910390f35b6102516104b4565b60405161025e9190610f8c565b60405180910390f35b61026f6104da565b60405161027c9190610dcf565b60405180910390f35b61028d61056c565b60405161029a9190610f8c565b60405180910390f35b6102bd60048036038101906102b89190610e8a565b610596565b6040516102ca9190610ee5565b60405180910390f35b6102ed60048036038101906102e8919061100b565b6106a6565b6040516102fa9190610f0f565b60405180910390f35b61030b61072d565b6040516103189190610f8c565b60405180910390f35b610329610753565b6040516103369190610f8c565b60405180910390f35b60606003805461034e9061107a565b80601f016020809104026020016040519081016040528092919081815260200182805461037a9061107a565b80156103c75780601f1061039c576101008083540402835291602001916103c7565b820191906000526020600020905b8154815290600101906020018083116103aa57829003601f168201915b5050505050905090565b6000806103dc61077d565b90506103e9818585610785565b600191505092915050565b6000600254905090565b60075481565b60008061040f61077d565b905061041c858285610797565b61042785858561082c565b60019150509392505050565b600560009054906101000a900473ffffffffffffffffffffffffffffffffffffffff1681565b60006012905090565b6000600754905090565b60008060008373ffffffffffffffffffffffffffffffffffffffff1673ffffffffffffffffffffffffffffffffffffffff168152602001908152602001600020549050919050565b600860009054906101000a900473ffffffffffffffffffffffffffffffffffffffff1681565b6060600480546104e99061107a565b80601f01602080910402602001604051908101604052809291908181526020018280546105159061107a565b80156105625780601f1061053757610100808354040283529160200191610562565b820191906000526020600020905b81548152906001019060200180831161054557829003601f168201915b5050505050905090565b6000600560009054906101000a900473ffffffffffffffffffffffffffffffffffffffff16905090565b6000806105a38484610920565b9050801561069c5733600560006101000a81548173ffffffffffffffffffffffffffffffffffffffff021916908373ffffffffffffffffffffffffffffffffffffffff16021790555083600660006101000a81548173ffffffffffffffffffffffffffffffffffffffff021916908373ffffffffffffffffffffffffffffffffffffffff160217905550426007819055508373ffffffffffffffffffffffffffffffffffffffff163373ffffffffffffffffffffffffffffffffffffffff167f0ec8d7e9829893dfc2860d52950a36df010a567c41359d5075c1bae465d5802c6007546040516106939190610f0f565b60405180910390a35b8091505092915050565b6000600160008473ffffffffffffffffffffffffffffffffffffffff1673ffffffffffffffffffffffffffffffffffffffff16815260200190815260200160002060008373ffffffffffffffffffffffffffffffffffffffff1673ffffffffffffffffffffffffffffffffffffffff16815260200190815260200160002054905092915050565b600660009054906101000a900473ffffffffffffffffffffffffffffffffffffffff1681565b6000600660009054906101000a900473ffffffffffffffffffffffffffffffffffffffff16905090565b600033905090565b6107928383836001610943565b505050565b60006107a384846106a6565b90507fffffffffffffffffffffffffffffffffffffffffffffffffffffffffffffffff8110156108265781811015610816578281836040517ffb8f41b200000000000000000000000000000000000000000000000000000000815260040161080d939291906110ab565b60405180910390fd5b61082584848484036000610943565b5b50505050565b600073ffffffffffffffffffffffffffffffffffffffff168373ffffffffffffffffffffffffffffffffffffffff160361089e5760006040517f96c6fd1e0000000000000000000000000000000000000000000000000000000081526004016108959190610f8c565b60405180910390fd5b600073ffffffffffffffffffffffffffffffffffffffff168273ffffffffffffffffffffffffffffffffffffffff16036109105760006040517fec442f050000000000000000000000000000000000000000000000000000000081526004016109079190610f8c565b60405180910390fd5b61091b838383610b1a565b505050565b60008061092b61077d565b905061093881858561082c565b600191505092915050565b600073ffffffffffffffffffffffffffffffffffffffff168473ffffffffffffffffffffffffffffffffffffffff16036109b55760006040517fe602df050000000000000000000000000000000000000000000000000000000081526004016109ac9190610f8c565b60405180910390fd5b600073ffffffffffffffffffffffffffffffffffffffff168373ffffffffffffffffffffffffffffffffffffffff1603610a275760006040517f94280d62000000000000000000000000000000000000000000000000000000008152600401610a1e9190610f8c565b60405180910390fd5b81600160008673ffffffffffffffffffffffffffffffffffffffff1673ffffffffffffffffffffffffffffffffffffffff16815260200190815260200160002060008573ffffffffffffffffffffffffffffffffffffffff1673ffffffffffffffffffffffffffffffffffffffff168152602001908152602001600020819055508015610b14578273ffffffffffffffffffffffffffffffffffffffff168473ffffffffffffffffffffffffffffffffffffffff167f8c5be1e5ebec7d5bd14f71427d1e84f3dd0314c0f7b2291e5b200ac8c7c3b92584604051610b0b9190610f0f565b60405180910390a35b50505050565b600073ffffffffffffffffffffffffffffffffffffffff168373ffffffffffffffffffffffffffffffffffffffff1603610b6c578060026000828254610b609190611111565b92505081905550610c3f565b60008060008573ffffffffffffffffffffffffffffffffffffffff1673ffffffffffffffffffffffffffffffffffffffff16815260200190815260200160002054905081811015610bf8578381836040517fe450d38c000000000000000000000000000000000000000000000000000000008152600401610bef939291906110ab565b60405180910390fd5b8181036000808673ffffffffffffffffffffffffffffffffffffffff1673ffffffffffffffffffffffffffffffffffffffff16815260200190815260200160002081905550505b600073ffffffffffffffffffffffffffffffffffffffff168273ffffffffffffffffffffffffffffffffffffffff1603610c885780600260008282540392505081905550610cd5565b806000808473ffffffffffffffffffffffffffffffffffffffff1673ffffffffffffffffffffffffffffffffffffffff168152602001908152602001600020600082825401925050819055505b8173ffffffffffffffffffffffffffffffffffffffff168373ffffffffffffffffffffffffffffffffffffffff167fddf252ad1be2c89b69c2b068fc378daa952ba7f163c4a11628f55a4df523b3ef83604051610d329190610f0f565b60405180910390a3505050565b600081519050919050565b600082825260208201905092915050565b60005b83811015610d79578082015181840152602081019050610d5e565b60008484015250505050565b6000601f19601f8301169050919050565b6000610da182610d3f565b610dab8185610d4a565b9350610dbb818560208601610d5b565b610dc481610d85565b840191505092915050565b60006020820190508181036000830152610de98184610d96565b905092915050565b600080fd5b600073ffffffffffffffffffffffffffffffffffffffff82169050919050565b6000610e2182610df6565b9050919050565b610e3181610e16565b8114610e3c57600080fd5b50565b600081359050610e4e81610e28565b92915050565b6000819050919050565b610e6781610e54565b8114610e7257600080fd5b50565b600081359050610e8481610e5e565b92915050565b60008060408385031215610ea157610ea0610df1565b5b6000610eaf85828601610e3f565b9250506020610ec085828601610e75565b9150509250929050565b60008115159050919050565b610edf81610eca565b82525050565b6000602082019050610efa6000830184610ed6565b92915050565b610f0981610e54565b82525050565b6000602082019050610f246000830184610f00565b92915050565b600080600060608486031215610f4357610f42610df1565b5b6000610f5186828701610e3f565b9350506020610f6286828701610e3f565b9250506040610f7386828701610e75565b9150509250925092565b610f8681610e16565b82525050565b6000602082019050610fa16000830184610f7d565b92915050565b600060ff82169050919050565b610fbd81610fa7565b82525050565b6000602082019050610fd86000830184610fb4565b92915050565b600060208284031215610ff457610ff3610df1565b5b600061100284828501610e3f565b91505092915050565b6000806040838503121561102257611021610df1565b5b600061103085828601610e3f565b925050602061104185828601610e3f565b9150509250929050565b7f4e487b7100000000000000000000000000000000000000000000000000000000600052602260045260246000fd5b6000600282049050600182168061109257607f821691505b6020821081036110a5576110a461104b565b5b50919050565b60006060820190506110c06000830186610f7d565b6110cd6020830185610f00565b6110da6040830184610f00565b949350505050565b7f4e487b7100000000000000000000000000000000000000000000000000000000600052601160045260246000fd5b600061111c82610e54565b915061112783610e54565b925082820190508082111561113f5761113e6110e2565b5b9291505056fea2646970667358221220b4c806ed94da3774058fdbdb9a48ae0ecb451326da427234ccfb8ab9d8bd817c64736f6c63430008140033",
  "linkReferences": {},
  "deployedLinkReferences": {}
}